:10039F0054001000BD001800D500D9007800E90006
:1003AF00ED009800FD00F950000000FC006D00A565
:0A03BF00005D00E500E400F9007C99
:10036900C2AAC297D2CCE4FDED640C6018EF30E06C
:1003790004D2968002C296C295EEC313FEEF13FF14
:10038900D2950D80E3D29700000000000000000024
:05039900000000D2AAE3
:01039E00223C
:1002DD00C2AA7F07C297E4FEEE64046019EF30E016
:1002ED0004D2968002C296EF139296C295EFC31375
:1002FD00FFD2950E80E2D297E4FFFEEE6407601602
:10030D00EF25E0FF30CC010FA2CCE433CF4FCFC2AD
:0A031D0095D2950E80E5C28BD2AA9E
:0103270022B3
:100016008E0C8F0DE50C7025E50D24FE600F146027
:100026001114601324037015750C0C800D750C0DDE
:100036008008750C0E8003750C0F750D00EC706052
:10004600EDB40A00505A900053F828287302007144
:1000560002007602007B02008002008502008A020E
:10006600008F02009402009902009E900010802BDF
:1000760090001280269000148021900016801C901B
:100086000018801790001A801290001C800D9000B6
:100096001E80089000208003900022E0FCA3E0FD73
:0B00A600E50C4CFEE50D4DFF02036968
:0600B100CBEFCBCAEECA42
:1000B7007C037DE8CFCFCECE1201CF8F828E837C9B
:1000C700037DE8CFEBCFCEEACE1201CF7E007F646F
:1000D700CFCDCFCECCCE1201CF8E088F097C007D3D
:1000E70064CFEBCFCEEACE1201CF7E007F0ACFCD11
:1000F700CFCECCCE1201CF8E0A8F0BCEEACECFEB6E
:10010700CF7C007D0A1201CFCBEDCBCAECCAAD8202
:10011700AC837F047E00120016AD09AC087F037E16
:1001270000120016AD0BAC0A7F027E00120016CD3E
:0C013700EBCDCCEACC7F017E000200166C
:0E00030000007F0A7E1F7D93DDFEDEFCDFFA2B
:0100110022CC
:1003CA007F007E041203697F037E041203697F00A3
:1003DA007E05120369E4F5A8D2AFD2AAC28AD2CDA9
:0103EA0022F0
:0303F000B2CD2269
:0100120022CB
:0103F30022E7
:0103F40022E6
:0103F50022E5
:0103F60022E4
:0103F70022E3
:0103F80022E2
:10032800EF24BC603214602B14602414601D24FB7D
:10033800601514600E1460071470207E01801E7E04
:1003480002801A7E0380167E0480127E05800E7E4F
:1003580006800A7E0780067E088002E4FECFEECF84
:010368002272
:0300130002025A8C
:10025A00C0E0C0F0C083C082C0D0EEC0E0EFC0E012
:10026A001202DD1203287E00EE7053EF14B4080068
:10027A00504C90028A75F003A4C58325F0C5837398
:10028A000202A20202A70202AC0202B10202B602F2
:10029A0002BB0202C00202C51203F0802112001240
:1002AA00801C1203F380171203F480121203F580E4
:1002BA000D1203F680081203F780031203F8D2AF77
:0202CA00D2AAB6
:1002CC00D0E0FFD0E0FED0D0D082D083D0F0D0E010
:0102DC0032EF
:0503EB001203CA80FEB0
:03000000020143B7
:0C014300787FE4F6D8FD75810D02018A7A
:1001CF00C2D5EC30E709B2D5E4C39DFDE49CFCEE4B
:1001DF0030E715B2D5E4C39FFFE49EFE120205C3BC
:1001EF00E49DFDE49CFC800312020530D507C3E4B7
:0601FF009FFFE49EFE22BA
:10014F000203EBE493A3F8E493A34003F68001F2D8
:10015F0008DFF48029E493A3F85407240CC8C333B1
:10016F00C4540F4420C8834004F456800146F6DF80
:10017F00E4800B010204081020408090039FE47E6E
:10018F00019360BCA3FF543F30E509541FFEE49375
:10019F00A360010ECF54C025E060A840B8E493A33C
:1001AF00FAE493A3F8E493A3C8C582C8CAC583CA67
:1001BF00F0A3C8C582C8CAC583CADFE9DEE780BE1F
:0103C9000033
:10020500BC000BBE0029EF8DF084FFADF022E4CCDD
:10021500F875F008EF2FFFEE33FEEC33FCEE9DECA6
:10022500984005FCEE9DFE0FD5F0E9E4CEFD22EDEC
:10023500F8F5F0EE8420D21CFEADF075F008EF2F36
:10024500FFED33FD4007985006D5F0F222C398FD27
:050255000FD5F0EA22C4
:00000001FF
