:0C02B2001200037FD27E041200BC80F416
:100003007590F0AF90EF64F070030200BB7F321283
:10001300028FAF90EF64F070030200BB7590FE7F18
:100023003212028FAF90EF2482601824C060102434
:10003300E0600824F07010752E0F22752E0B2275C8
:100043002E0722752E03227590FDAF90EF24836057
:100053001824C0601024E0600824F07010752E0E80
:1000630022752E0A22752E0622752E02227590FB0A
:10007300AF90EF2485601824C0601024E06008244A
:10008300F07010752E0D22752E0922752E0522751E
:100093002E01227590F7AF90EF2489601824C06079
:1000A3001024E0600824F0700F752E0C22752E08C2
:0800B30022752E0422E4F52E53
:0100BB002222
:10026B0020200800C000F900A400B0009900920003
:10027B008200F8008000900088008300C600A10077
:03028B0086008E5C
:10024100EF24FE600F146011146013240370127503
:10025100A001800D75A002800875A004800375A01F
:0A026100087F0212028FE4F5A022CC
:0400BC00AB07AA06DE
:1000C0007C037DE81201EC7C007D0A1201EC8D823C
:1000D0007C007D64AF03AE021201EC7C007D0A124D
:1000E00001EC8C288D297C007D0AAF03AE02120141
:1000F000EC7C007D0A1201EC8C2A8D2BAE02AF0342
:100100007C007D0A1201EC8C2C8D2DAF82EF25E056
:100110002408F808E6F5807F011202417F021202EE
:100120008FE52925E02408F808E6F5807F02120211
:10013000417F0212028FE52B25E02408F808E6F53E
:10014000807F031202417F0212028FE52D25E024F9
:1001500008F808E6F5807F041202417F0202028F50
:10028F007E00D3EF9400EE648094804015E4FDFC73
:10029F000DBD00010CED64784C70F5EF1F70E31E7F
:0202AF0080E0ED
:0102B100222A
:030000000201609A
:0C016000787FE4F6D8FD75812E0201A71F
:1001EC00BC000BBE0029EF8DF084FFADF022E4CCF7
:1001FC00F875F008EF2FFFEE33FEEC33FCEE9DECC0
:10020C00984005FCEE9DFE0FD5F0E9E4CEFD22ED05
:10021C00F8F5F0EE8420D21CFEADF075F008EF2F4F
:10022C00FFED33FD4007985006D5F0F222C398FD40
:05023C000FD5F0EA22DD
:10016C000202B2E493A3F8E493A34003F68001F2F5
:10017C0008DFF48029E493A3F85407240CC8C33394
:10018C00C4540F4420C8834004F456800146F6DF63
:10019C00E4800B010204081020408090026BE47E86
:1001AC00019360BCA3FF543F30E509541FFEE49358
:1001BC00A360010ECF54C025E060A840B8E493A31F
:1001CC00FAE493A3F8E493A3C8C582C8CAC583CA4A
:1001DC00F0A3C8C582C8CAC583CADFE9DEE780BE02
:01028E00006F
:00000001FF
