:100255004B657920273D272069732070726573737C
:100265006564210D0A004B657920274345272069E0
:10027500732070726573736564210D0A004B65798F
:1002850020272527206973207072657373656421A3
:100295000D0A004B65792027782720697320707235
:1002A5006573736564210D0A004B6579202737272F
:1002B5002069732070726573736564210D0A004BA4
:1002C50065792027382720697320707265737365F7
:1002D50064210D0A004B6579202739272069732091
:1002E50070726573736564210D0A004B657920276B
:1002F50034272069732070726573736564210D0A54
:10030500004B657920273527206973207072657346
:10031500736564210D0A004B65792027362720690E
:10032500732070726573736564210D0A004B6579DE
:1003350020273127206973207072657373656421E6
:100345000D0A004B657920273227206973207072CA
:100355006573736564210D0A004B65792027332782
:100365002069732070726573736564210D0A004BF3
:10037500657920273027206973207072657373654E
:0503850064210D0A00D7
:10069D00011110010C00020D000002080000020AF9
:0606AD000000020F000036
:10002600120003D2AFD2ACD3E50E94E7E50D64809F
:100036009483400DE4F50C12065FE4F50DF50E8091
:1000460059E511640E704C7BFF7A0279551207034D
:10005600E50F702DE51024FE6010047024AC0DAD84
:100066000EAE08AF0912040A800BAC0DAD0EAE0839
:10007600AF091203A38E0A8F0B850A0D850B0E801E
:1000860000E4F50FF5107FC8120728751110E4F586
:100096000C8007AF0EAE0D12052FE50C70030202A1
:1000A6004FE511640C701E7BFF7A02796B12070311
:1000B600E4F50DF50EF508F509F50AF50B7FC812FE
:1000C6000728E4F50CE511640370227BFF7A0279B8
:1000D60082120703750F00751001850D08850E093C
:1000E600E4F50DF50E7FC8120728E4F50CE511645A
:1000F6000770227BFF7A027998120703750F007545
:100106001002850D08850E09E4F50DF50E7FC8125F
:100116000728E4F50CE511120440014200015C01D8
:1001260001760201900401A90501C20601DB08015E
:10013600F409020D0A022C0D0000002D7BFF7A0245
:1001460079AE120703AE0DAF0E7C007D0A1203A333
:10015600EF24070202247BFF7A0279C4120703AE5A
:100166000DAF0E7C007D0A1203A3EF2408020224C1
:100176007BFF7A0279DA120703AE0DAF0E7C007DA3
:100186000A1203A3EF24090202247BFF7A0279F004
:10019600120703AE0DAF0E7C007D0A1203A3EF24F7
:1001A60004807B7BFF7A037906120703AE0DAF0E40
:1001B6007C007D0A1203A3EF240580627BFF7A038D
:1001C600791C120703AE0DAF0E7C007D0A1203A345
:1001D600EF240680497BFF7A037932120703AE0DBE
:1001E600AF0E7C007D0A1203A3EF240180307BFF53
:1001F6007A037948120703AE0DAF0E7C007D0A1212
:1002060003A3EF240280177BFF7A03795E120703AC
:10021600AE0DAF0E7C007D0A1203A3EF2403F50E8C
:10022600E43EF50D80187BFF7A037974120703AE5E
:100236000DAF0E7C007D0A1203A38E0D8F0E7FC8B4
:0F024600120728E4F50C02002D12046602002DA9
:100466007590F0AF90EF64F0700302052E7F3212A4
:100476000728AF90EF64F0700302052E7590FEAF6B
:1004860090EF2482601E24C0601424E0600A24F0E9
:10049600701775110F02052B75110B02052B7511BF
:1004A6000702052B751103807C7590FDAF90EF2434
:1004B60083601B24C0601224E0600924F070147568
:1004C600110E806175110A805C75110680577511D1
:1004D6000280527590FBAF90EF2485601B24C060AC
:1004E6001224E0600924F0701475110D803775111F
:1004F600098032751105802D75110180287590F7D8
:10050600AF90EF2489601B24C0601224E0600924A8
:10051600F0701575110C800D7511088008751104A1
:080526008003E4F511750C01DE
:01052E0022AA
:1006B30020202100C000F900A400B000990092009E
:1006C3008200F8008000900088008300C600A1002B
:0306D30086008E10
:1006D900EF24FE600F146011146013240370127567
:1006E900A001800D75A002800875A004800375A083
:0A06F900087F02120728E4F5A02292
:04052F00AB07AA0666
:100533007C037DE81203B57C007D0A1203B58D822E
:100543007C007D64AF03AE021203B57C007D0A120A
:1005530003B58C128D137C007D0AAF03AE02120328
:10056300B57C007D0A1203B58C148D15AE02AF0362
:100573007C007D0A1203B58C168D17AF82EF25E040
:100583002421F808E6F5807F011206D97F021207BD
:1005930028E51325E02421F808E6F5807F021206FA
:1005A300D97F02120728E51525E02421F808E6F58E
:1005B300807F031206D97F02120728E51725E0245E
:1005C30021F808E6F5807F041206D97F0202072886
:10065F00E50C70398540807F011206D97F021207A1
:10066F00288540807F021206D97F02120728854015
:10067F00807F031206D97F021207288540807F04EE
:0E068F001206D97F0212072812046680C322C9
:100728007E00D3EF9400EE648094804015E4FDFCD5
:100738000DBD00010CED64784C70F5EF1F70E31EE1
:0207480080E04F
:01074A00228C
:0206D600C10061
:10000300758920E4F587759860758BFD758DFDC244
:04001300ABD28E22BC
:0A0017002000FDD2008F99C299224B
:100703008B128A138914AB12AA13A91412038A60D9
:10071300130514E5147002051314F912038AFF126A
:05072300001780E22236
:0300230002074B86
:0D074B00309904C299C200309802C2983261
:030000000205D323
:0C05D300787FE4F6D8FD75814002061A1E
:10038A00BB010689828A83E0225002E722BBFE0271
:09039A00E32289828A83E49322A4
:1003A300EF8DF0A4A8F0CF8CF0A428CE8DF0A42E6E
:0203B300FE2228
:1003B500BC000BBE0029EF8DF084FFADF022E4CC2C
:1003C500F875F008EF2FFFEE33FEEC33FCEE9DECF5
:1003D500984005FCEE9DFE0FD5F0E9E4CEFD22ED3B
:1003E500F8F5F0EE8420D21CFEADF075F008EF2F85
:1003F500FFED33FD4007985006D5F0F222C398FD76
:050405000FD5F0EA2212
:10040A00C2D5EC30E709B2D5E4C39DFDE49CFCEE0D
:10041A0030E715B2D5E4C39FFFE49EFE1203B5C3CD
:10042A00E49DFDE49CFC80031203B530D507C3E4C8
:06043A009FFFE49EFE227C
:10044000D083D082F8E4937012740193700DA3A34B
:1004500093F8740193F5828883E47374029368605F
:06046000EFA3A3A380DF5F
:1005DF00020026E493A3F8E493A34003F68001F20C
:1005EF0008DFF48029E493A3F85407240CC8C3331D
:1005FF00C4540F4420C8834004F456800146F6DFEC
:10060F00E4800B010204081020408090069DE47ED8
:10061F00019360BCA3FF543F30E509541FFEE493E0
:10062F00A360010ECF54C025E060A840B8E493A3A7
:10063F00FAE493A3F8E493A3C8C582C8CAC583CAD2
:10064F00F0A3C8C582C8CAC583CADFE9DEE780BE8A
:0106D8000021
:00000001FF
